{
  "contractName": "Election",
  "abi": [
    {
      "inputs": [],
      "stateMutability": "nonpayable",
      "type": "constructor"
    },
    {
      "anonymous": false,
      "inputs": [
        {
          "indexed": true,
          "internalType": "uint256",
          "name": "_candidateId",
          "type": "uint256"
        }
      ],
      "name": "votedEvent",
      "type": "event"
    },
    {
      "inputs": [
        {
          "internalType": "uint256",
          "name": "",
          "type": "uint256"
        }
      ],
      "name": "candidates",
      "outputs": [
        {
          "internalType": "uint256",
          "name": "id",
          "type": "uint256"
        },
        {
          "internalType": "string",
          "name": "name",
          "type": "string"
        },
        {
          "internalType": "uint256",
          "name": "voteCount",
          "type": "uint256"
        }
      ],
      "stateMutability": "view",
      "type": "function"
    },
    {
      "inputs": [],
      "name": "candidatesCount",
      "outputs": [
        {
          "internalType": "uint256",
          "name": "",
          "type": "uint256"
        }
      ],
      "stateMutability": "view",
      "type": "function"
    },
    {
      "inputs": [
        {
          "internalType": "address",
          "name": "",
          "type": "address"
        }
      ],
      "name": "voters",
      "outputs": [
        {
          "internalType": "bool",
          "name": "",
          "type": "bool"
        }
      ],
      "stateMutability": "view",
      "type": "function"
    },
    {
      "inputs": [
        {
          "internalType": "uint256",
          "name": "_candidateId",
          "type": "uint256"
        }
      ],
      "name": "vote",
      "outputs": [],
      "stateMutability": "nonpayable",
      "type": "function"
    }
  ],
  "bytecode": "0x608060405234801562000010575f80fd5b50620000576040518060400160405280600b81526020017f43616e6469646174652031000000000000000000000000000000000000000000815250620000e960201b60201c565b6200009d6040518060400160405280600b81526020017f43616e6469646174652032000000000000000000000000000000000000000000815250620000e960201b60201c565b620000e36040518060400160405280600b81526020017f43616e6469646174652033000000000000000000000000000000000000000000815250620000e960201b60201c565b62000523565b60025f815480929190620000fd9062000198565b9190505550604051806060016040528060025481526020018281526020015f81525060015f60025481526020019081526020015f205f820151815f015560208201518160010190816200015191906200043f565b506040820151816002015590505050565b7f4e487b71000000000000000000000000000000000000000000000000000000005f52601160045260245ffd5b5f819050919050565b5f620001a4826200018f565b91507fffffffffffffffffffffffffffffffffffffffffffffffffffffffffffffffff8203620001d957620001d862000162565b5b600182019050919050565b5f81519050919050565b7f4e487b71000000000000000000000000000000000000000000000000000000005f52604160045260245ffd5b7f4e487b71000000000000000000000000000000000000000000000000000000005f52602260045260245ffd5b5f60028204905060018216806200026057607f821691505b6020821081036200027657620002756200021b565b5b50919050565b5f819050815f5260205f209050919050565b5f6020601f8301049050919050565b5f82821b905092915050565b5f60088302620002da7fffffffffffffffffffffffffffffffffffffffffffffffffffffffffffffffff826200029d565b620002e686836200029d565b95508019841693508086168417925050509392505050565b5f819050919050565b5f62000327620003216200031b846200018f565b620002fe565b6200018f565b9050919050565b5f819050919050565b620003428362000307565b6200035a62000351826200032e565b848454620002a9565b825550505050565b5f90565b6200037062000362565b6200037d81848462000337565b505050565b5b81811015620003a457620003985f8262000366565b60018101905062000383565b5050565b601f821115620003f357620003bd816200027c565b620003c8846200028e565b81016020851015620003d8578190505b620003f0620003e7856200028e565b83018262000382565b50505b505050565b5f82821c905092915050565b5f620004155f1984600802620003f8565b1980831691505092915050565b5f6200042f838362000404565b9150826002028217905092915050565b6200044a82620001e4565b67ffffffffffffffff811115620004665762000465620001ee565b5b62000472825462000248565b6200047f828285620003a8565b5f60209050601f831160018114620004b5575f8415620004a0578287015190505b620004ac858262000422565b8655506200051b565b601f198416620004c5866200027c565b5f5b82811015620004ee57848901518255600182019150602085019450602081019050620004c7565b868310156200050e57848901516200050a601f89168262000404565b8355505b6001600288020188555050505b505050505050565b6105df80620005315f395ff3fe608060405234801561000f575f80fd5b506004361061004a575f3560e01c80630121b93f1461004e5780632d35a8a21461006a5780633477ee2e14610088578063a3ec138d146100ba575b5f80fd5b61006860048036038101906100639190610307565b6100ea565b005b610072610202565b60405161007f9190610341565b60405180910390f35b6100a2600480360381019061009d9190610307565b610208565b6040516100b1939291906103e4565b60405180910390f35b6100d460048036038101906100cf919061047a565b6102b4565b6040516100e191906104bf565b60405180910390f35b5f803373ffffffffffffffffffffffffffffffffffffffff1673ffffffffffffffffffffffffffffffffffffffff1681526020019081526020015f205f9054906101000a900460ff161561013c575f80fd5b5f8111801561014d57506002548111155b610155575f80fd5b60015f803373ffffffffffffffffffffffffffffffffffffffff1673ffffffffffffffffffffffffffffffffffffffff1681526020019081526020015f205f6101000a81548160ff02191690831515021790555060015f8281526020019081526020015f206002015f8154809291906101cd90610505565b9190505550807ffff3c900d938d21d0990d786e819f29b8d05c1ef587b462b939609625b684b1660405160405180910390a250565b60025481565b6001602052805f5260405f205f91509050805f01549080600101805461022d90610579565b80601f016020809104026020016040519081016040528092919081815260200182805461025990610579565b80156102a45780601f1061027b576101008083540402835291602001916102a4565b820191905f5260205f20905b81548152906001019060200180831161028757829003601f168201915b5050505050908060020154905083565b5f602052805f5260405f205f915054906101000a900460ff1681565b5f80fd5b5f819050919050565b6102e6816102d4565b81146102f0575f80fd5b50565b5f81359050610301816102dd565b92915050565b5f6020828403121561031c5761031b6102d0565b5b5f610329848285016102f3565b91505092915050565b61033b816102d4565b82525050565b5f6020820190506103545f830184610332565b92915050565b5f81519050919050565b5f82825260208201905092915050565b5f5b83811015610391578082015181840152602081019050610376565b5f8484015250505050565b5f601f19601f8301169050919050565b5f6103b68261035a565b6103c08185610364565b93506103d0818560208601610374565b6103d98161039c565b840191505092915050565b5f6060820190506103f75f830186610332565b818103602083015261040981856103ac565b90506104186040830184610332565b949350505050565b5f73ffffffffffffffffffffffffffffffffffffffff82169050919050565b5f61044982610420565b9050919050565b6104598161043f565b8114610463575f80fd5b50565b5f8135905061047481610450565b92915050565b5f6020828403121561048f5761048e6102d0565b5b5f61049c84828501610466565b91505092915050565b5f8115159050919050565b6104b9816104a5565b82525050565b5f6020820190506104d25f8301846104b0565b92915050565b7f4e487b71000000000000000000000000000000000000000000000000000000005f52601160045260245ffd5b5f61050f826102d4565b91507fffffffffffffffffffffffffffffffffffffffffffffffffffffffffffffffff8203610541576105406104d8565b5b600182019050919050565b7f4e487b71000000000000000000000000000000000000000000000000000000005f52602260045260245ffd5b5f600282049050600182168061059057607f821691505b6020821081036105a3576105a261054c565b5b5091905056fea2646970667358221220703ca2e697119ec325f9a3c4829976fa2894728ad451aeb6f658a1c42c88118064736f6c63430008150033",
  "immutableReferences": {},
  "source": "pragma solidity >=0.4.22 <0.9.0;\r\n\r\ncontract Election {\r\n    // Model a Candidate\r\n    struct Candidate {\r\n        uint256 id;\r\n        string name;\r\n        uint256 voteCount;\r\n    }\r\n\r\n    // Store accounts that have voted\r\n    mapping(address => bool) public voters;\r\n    // Store Candidates\r\n    // Fetch Candidate\r\n    mapping(uint256 => Candidate) public candidates;\r\n    // Store Candidates Count\r\n    uint256 public candidatesCount;\r\n\r\n    // voted event\r\n    event votedEvent(uint256 indexed _candidateId);\r\n\r\n    constructor() public {\r\n        addCandidate(\"Candidate 1\");\r\n        addCandidate(\"Candidate 2\");\r\n        addCandidate(\"Candidate 3\");\r\n    }\r\n\r\n    function addCandidate(string memory _name) private {\r\n        candidatesCount++;\r\n        candidates[candidatesCount] = Candidate(candidatesCount, _name, 0);\r\n    }\r\n\r\n    function vote(uint256 _candidateId) public {\r\n        // require that they haven't voted before\r\n        require(!voters[msg.sender]);\r\n\r\n        // require a valid candidate\r\n        require(_candidateId > 0 && _candidateId <= candidatesCount);\r\n\r\n        // record that voter has voted\r\n        voters[msg.sender] = true;\r\n\r\n        // update candidate vote Count\r\n        candidates[_candidateId].voteCount++;\r\n\r\n        // trigger voted event\r\n        emit votedEvent(_candidateId);\r\n    }\r\n}\r\n",
  "sourcePath": "C:\\Users\\Shlok\\Desktop\\Shlok\\Blockchain\\demo\\voting\\contracts\\Election.sol",
  "compiler": {
    "name": "solc",
    "version": "0.8.21+commit.d9974bed.Emscripten.clang"
  },
  "schemaVersion": "3.4.16",
  "updatedAt": "2023-11-22T05:24:33.880Z",
  "devdoc": {
    "kind": "dev",
    "methods": {},
    "version": 1
  },
  "userdoc": {
    "kind": "user",
    "methods": {},
    "version": 1
  }
}